:03000000020800F3
:0C080000787FE4F6D8FD758117020847E8
:080971007FBFDFEFF7FBFDFE85
:0C09640002120000020800000214000053
:10093100E4FDFCC3ED9FEC9E5015E4FBFA0BBB00FC
:0F094100010AEB64324A70F50DBD00010C80E431
:010950002284
:10095100759850758920758DFD758BFDD2ACD2AF20
:03096100D28E2211
:030023000208D2FE
:1008D200C0E0C0D075D000C00030981DE513640898
:1008E20045127004F512F513740A2513F8A699053A
:1008F20013E51370020512C298D000D0D0D0E032B6
:10090200C2B6C2B5E4FEEEC3940874809480501857
:10091200EFC4131313540124FF92B4EF25E0FFD266
:0E092200B60000C2B60E80DED2B50000C2B52F
:0109300022A4
:10088C00120951E4F516F517E4F9E9C394087480DC
:10089C009480501FE4FF120902E990097193F580CE
:1008AC00740A29F8E6FF1209027F017E0012093151
:1008BC000980D70517E51770020516C3940FE516C6
:0608CC00940040C480BD51
:10080C0002088CE493A3F8E493A34003F68001F26E
:10081C0008DFF48029E493A3F85407240CC8C333ED
:10082C00C4540F4420C8834004F456800146F6DFBC
:10083C00E4800B0102040810204080900964E47EDF
:10084C00019360BCA3FF543F30E509541FFEE493B1
:10085C00A360010ECF54C025E060A840B8E493A378
:10086C00FAE493A3F8E493A3C8C582C8CAC583CAA3
:10087C00F0A3C8C582C8CAC583CADFE9DEE780BE5B
:010970000086
:00000001FF
